{
  "contractName": "Zkoopa",
  "abi": [
    {
      "inputs": [],
      "stateMutability": "nonpayable",
      "type": "constructor"
    },
    {
      "anonymous": false,
      "inputs": [
        {
          "indexed": true,
          "internalType": "address",
          "name": "owner",
          "type": "address"
        },
        {
          "indexed": true,
          "internalType": "address",
          "name": "approved",
          "type": "address"
        },
        {
          "indexed": true,
          "internalType": "uint256",
          "name": "tokenId",
          "type": "uint256"
        }
      ],
      "name": "Approval",
      "type": "event"
    },
    {
      "anonymous": false,
      "inputs": [
        {
          "indexed": true,
          "internalType": "address",
          "name": "owner",
          "type": "address"
        },
        {
          "indexed": true,
          "internalType": "address",
          "name": "operator",
          "type": "address"
        },
        {
          "indexed": false,
          "internalType": "bool",
          "name": "approved",
          "type": "bool"
        }
      ],
      "name": "ApprovalForAll",
      "type": "event"
    },
    {
      "anonymous": false,
      "inputs": [
        {
          "indexed": true,
          "internalType": "address",
          "name": "from",
          "type": "address"
        },
        {
          "indexed": true,
          "internalType": "address",
          "name": "to",
          "type": "address"
        },
        {
          "indexed": true,
          "internalType": "uint256",
          "name": "tokenId",
          "type": "uint256"
        }
      ],
      "name": "Transfer",
      "type": "event"
    },
    {
      "inputs": [
        {
          "internalType": "address",
          "name": "to",
          "type": "address"
        },
        {
          "internalType": "uint256",
          "name": "tokenId",
          "type": "uint256"
        }
      ],
      "name": "approve",
      "outputs": [],
      "stateMutability": "nonpayable",
      "type": "function"
    },
    {
      "inputs": [
        {
          "internalType": "address",
          "name": "owner",
          "type": "address"
        }
      ],
      "name": "balanceOf",
      "outputs": [
        {
          "internalType": "uint256",
          "name": "",
          "type": "uint256"
        }
      ],
      "stateMutability": "view",
      "type": "function",
      "constant": true
    },
    {
      "inputs": [
        {
          "internalType": "uint256",
          "name": "tokenId",
          "type": "uint256"
        }
      ],
      "name": "getApproved",
      "outputs": [
        {
          "internalType": "address",
          "name": "",
          "type": "address"
        }
      ],
      "stateMutability": "view",
      "type": "function",
      "constant": true
    },
    {
      "inputs": [
        {
          "internalType": "address",
          "name": "owner",
          "type": "address"
        },
        {
          "internalType": "address",
          "name": "operator",
          "type": "address"
        }
      ],
      "name": "isApprovedForAll",
      "outputs": [
        {
          "internalType": "bool",
          "name": "",
          "type": "bool"
        }
      ],
      "stateMutability": "view",
      "type": "function",
      "constant": true
    },
    {
      "inputs": [],
      "name": "name",
      "outputs": [
        {
          "internalType": "string",
          "name": "",
          "type": "string"
        }
      ],
      "stateMutability": "view",
      "type": "function",
      "constant": true
    },
    {
      "inputs": [
        {
          "internalType": "uint256",
          "name": "tokenId",
          "type": "uint256"
        }
      ],
      "name": "ownerOf",
      "outputs": [
        {
          "internalType": "address",
          "name": "",
          "type": "address"
        }
      ],
      "stateMutability": "view",
      "type": "function",
      "constant": true
    },
    {
      "inputs": [
        {
          "internalType": "address",
          "name": "from",
          "type": "address"
        },
        {
          "internalType": "address",
          "name": "to",
          "type": "address"
        },
        {
          "internalType": "uint256",
          "name": "tokenId",
          "type": "uint256"
        }
      ],
      "name": "safeTransferFrom",
      "outputs": [],
      "stateMutability": "nonpayable",
      "type": "function"
    },
    {
      "inputs": [
        {
          "internalType": "address",
          "name": "from",
          "type": "address"
        },
        {
          "internalType": "address",
          "name": "to",
          "type": "address"
        },
        {
          "internalType": "uint256",
          "name": "tokenId",
          "type": "uint256"
        },
        {
          "internalType": "bytes",
          "name": "_data",
          "type": "bytes"
        }
      ],
      "name": "safeTransferFrom",
      "outputs": [],
      "stateMutability": "nonpayable",
      "type": "function"
    },
    {
      "inputs": [
        {
          "internalType": "address",
          "name": "operator",
          "type": "address"
        },
        {
          "internalType": "bool",
          "name": "approved",
          "type": "bool"
        }
      ],
      "name": "setApprovalForAll",
      "outputs": [],
      "stateMutability": "nonpayable",
      "type": "function"
    },
    {
      "inputs": [],
      "name": "symbol",
      "outputs": [
        {
          "internalType": "string",
          "name": "",
          "type": "string"
        }
      ],
      "stateMutability": "view",
      "type": "function",
      "constant": true
    },
    {
      "inputs": [
        {
          "internalType": "uint256",
          "name": "index",
          "type": "uint256"
        }
      ],
      "name": "tokenByIndex",
      "outputs": [
        {
          "internalType": "uint256",
          "name": "",
          "type": "uint256"
        }
      ],
      "stateMutability": "view",
      "type": "function",
      "constant": true
    },
    {
      "inputs": [
        {
          "internalType": "address",
          "name": "owner",
          "type": "address"
        },
        {
          "internalType": "uint256",
          "name": "index",
          "type": "uint256"
        }
      ],
      "name": "tokenOfOwnerByIndex",
      "outputs": [
        {
          "internalType": "uint256",
          "name": "",
          "type": "uint256"
        }
      ],
      "stateMutability": "view",
      "type": "function",
      "constant": true
    },
    {
      "inputs": [
        {
          "internalType": "uint256",
          "name": "tokenId",
          "type": "uint256"
        }
      ],
      "name": "tokenURI",
      "outputs": [
        {
          "internalType": "string",
          "name": "",
          "type": "string"
        }
      ],
      "stateMutability": "view",
      "type": "function",
      "constant": true
    },
    {
      "inputs": [],
      "name": "totalSupply",
      "outputs": [
        {
          "internalType": "uint256",
          "name": "",
          "type": "uint256"
        }
      ],
      "stateMutability": "view",
      "type": "function",
      "constant": true
    },
    {
      "inputs": [
        {
          "internalType": "address",
          "name": "from",
          "type": "address"
        },
        {
          "internalType": "address",
          "name": "to",
          "type": "address"
        },
        {
          "internalType": "uint256",
          "name": "tokenId",
          "type": "uint256"
        }
      ],
      "name": "transferFrom",
      "outputs": [],
      "stateMutability": "nonpayable",
      "type": "function"
    },
    {
      "inputs": [
        {
          "internalType": "uint256",
          "name": "",
          "type": "uint256"
        }
      ],
      "name": "zkoops",
      "outputs": [
        {
          "internalType": "string",
          "name": "name",
          "type": "string"
        },
        {
          "internalType": "string",
          "name": "nftType",
          "type": "string"
        }
      ],
      "stateMutability": "view",
      "type": "function",
      "constant": true
    },
    {
      "inputs": [],
      "name": "getAllZkoopas",
      "outputs": [
        {
          "components": [
            {
              "internalType": "string",
              "name": "name",
              "type": "string"
            },
            {
              "internalType": "string",
              "name": "nftType",
              "type": "string"
            }
          ],
          "internalType": "struct Zkoopa.NFT[]",
          "name": "",
          "type": "tuple[]"
        }
      ],
      "stateMutability": "view",
      "type": "function",
      "constant": true
    },
    {
      "inputs": [
        {
          "internalType": "string",
          "name": "name",
          "type": "string"
        },
        {
          "internalType": "string",
          "name": "nftType",
          "type": "string"
        }
      ],
      "name": "mint",
      "outputs": [],
      "stateMutability": "nonpayable",
      "type": "function"
    },
    {
      "inputs": [
        {
          "internalType": "bytes4",
          "name": "interfaceId",
          "type": "bytes4"
        }
      ],
      "name": "supportsInterface",
      "outputs": [
        {
          "internalType": "bool",
          "name": "",
          "type": "bool"
        }
      ],
      "stateMutability": "view",
      "type": "function",
      "constant": true
    }
  ],
  "bytecode": "0x60806040523480156200001157600080fd5b506040518060400160405280600681526020017f7a6b6f6f706100000000000000000000000000000000000000000000000000008152506040518060400160405280600581526020017f6269676779000000000000000000000000000000000000000000000000000000815250816000908051906020019062000096929190620000b8565b508060019080519060200190620000af929190620000b8565b505050620001cd565b828054620000c69062000197565b90600052602060002090601f016020900481019282620000ea576000855562000136565b82601f106200010557805160ff191683800117855562000136565b8280016001018555821562000136579182015b828111156200013557825182559160200191906001019062000118565b5b50905062000145919062000149565b5090565b5b80821115620001645760008160009055506001016200014a565b5090565b7f4e487b7100000000000000000000000000000000000000000000000000000000600052602260045260246000fd5b60006002820490506001821680620001b057607f821691505b60208210811415620001c757620001c662000168565b5b50919050565b6136eb80620001dd6000396000f3fe608060405234801561001057600080fd5b50600436106101215760003560e01c80634f6ccce7116100ad57806395d89b411161007157806395d89b4114610341578063a22cb4651461035f578063b88d4fde1461037b578063c87b56dd14610397578063e985e9c5146103c757610121565b80634f6ccce7146102775780636352211e146102a757806370a08231146102d75780638aa0fdad146103075780638c2fdca61461032357610121565b806318160ddd116100f457806318160ddd146101c057806323b872dd146101de5780632f745c59146101fa578063325ed5c31461022a57806342842e0e1461025b57610121565b806301ffc9a71461012657806306fdde0314610156578063081812fc14610174578063095ea7b3146101a4575b600080fd5b610140600480360381019061013b91906121d6565b6103f7565b60405161014d919061221e565b60405180910390f35b61015e610409565b60405161016b91906122d2565b60405180910390f35b61018e6004803603810190610189919061232a565b61049b565b60405161019b9190612398565b60405180910390f35b6101be60048036038101906101b991906123df565b610520565b005b6101c8610638565b6040516101d5919061242e565b60405180910390f35b6101f860048036038101906101f39190612449565b610645565b005b610214600480360381019061020f91906123df565b6106a5565b604051610221919061242e565b60405180910390f35b610244600480360381019061023f919061232a565b61074a565b60405161025292919061249c565b60405180910390f35b61027560048036038101906102709190612449565b61088e565b005b610291600480360381019061028c919061232a565b6108ae565b60405161029e919061242e565b60405180910390f35b6102c160048036038101906102bc919061232a565b61091f565b6040516102ce9190612398565b60405180910390f35b6102f160048036038101906102ec91906124d3565b6109d1565b6040516102fe919061242e565b60405180910390f35b610321600480360381019061031c9190612635565b610a89565b005b61032b610bcd565b60405161033891906127fd565b60405180910390f35b610349610d50565b60405161035691906122d2565b60405180910390f35b6103796004803603810190610374919061284b565b610de2565b005b6103956004803603810190610390919061292c565b610df8565b005b6103b160048036038101906103ac919061232a565b610e5a565b6040516103be91906122d2565b60405180910390f35b6103e160048036038101906103dc91906129af565b610f01565b6040516103ee919061221e565b60405180910390f35b600061040282610f95565b9050919050565b60606000805461041890612a1e565b80601f016020809104026020016040519081016040528092919081815260200182805461044490612a1e565b80156104915780601f1061046657610100808354040283529160200191610491565b820191906000526020600020905b81548152906001019060200180831161047457829003601f168201915b5050505050905090565b60006104a68261100f565b6104e5576040517f08c379a00000000000000000000000000000000000000000000000000000000081526004016104dc90612ac2565b60405180910390fd5b6004600083815260200190815260200160002060009054906101000a900473ffffffffffffffffffffffffffffffffffffffff169050919050565b600061052b8261091f565b90508073ffffffffffffffffffffffffffffffffffffffff168373ffffffffffffffffffffffffffffffffffffffff16141561059c576040517f08c379a000000000000000000000000000000000000000000000000000000000815260040161059390612b54565b60405180910390fd5b8073ffffffffffffffffffffffffffffffffffffffff166105bb61107b565b73ffffffffffffffffffffffffffffffffffffffff1614806105ea57506105e9816105e461107b565b610f01565b5b610629576040517f08c379a000000000000000000000000000000000000000000000000000000000815260040161062090612be6565b60405180910390fd5b6106338383611083565b505050565b6000600880549050905090565b61065661065061107b565b8261113c565b610695576040517f08c379a000000000000000000000000000000000000000000000000000000000815260040161068c90612c78565b60405180910390fd5b6106a083838361121a565b505050565b60006106b0836109d1565b82106106f1576040517f08c379a00000000000000000000000000000000000000000000000000000000081526004016106e890612d0a565b60405180910390fd5b600660008473ffffffffffffffffffffffffffffffffffffffff1673ffffffffffffffffffffffffffffffffffffffff168152602001908152602001600020600083815260200190815260200160002054905092915050565b600a818154811061075a57600080fd5b906000526020600020906002020160009150905080600001805461077d90612a1e565b80601f01602080910402602001604051908101604052809291908181526020018280546107a990612a1e565b80156107f65780601f106107cb576101008083540402835291602001916107f6565b820191906000526020600020905b8154815290600101906020018083116107d957829003601f168201915b50505050509080600101805461080b90612a1e565b80601f016020809104026020016040519081016040528092919081815260200182805461083790612a1e565b80156108845780601f1061085957610100808354040283529160200191610884565b820191906000526020600020905b81548152906001019060200180831161086757829003601f168201915b5050505050905082565b6108a983838360405180602001604052806000815250610df8565b505050565b60006108b8610638565b82106108f9576040517f08c379a00000000000000000000000000000000000000000000000000000000081526004016108f090612d9c565b60405180910390fd5b6008828154811061090d5761090c612dbc565b5b90600052602060002001549050919050565b6000806002600084815260200190815260200160002060009054906101000a900473ffffffffffffffffffffffffffffffffffffffff169050600073ffffffffffffffffffffffffffffffffffffffff168173ffffffffffffffffffffffffffffffffffffffff1614156109c8576040517f08c379a00000000000000000000000000000000000000000000000000000000081526004016109bf90612e5d565b60405180910390fd5b80915050919050565b60008073ffffffffffffffffffffffffffffffffffffffff168273ffffffffffffffffffffffffffffffffffffffff161415610a42576040517f08c379a0000000000000000000000000000000000000000000000000000000008152600401610a3990612eef565b60405180910390fd5b600360008373ffffffffffffffffffffffffffffffffffffffff1673ffffffffffffffffffffffffffffffffffffffff168152602001908152602001600020549050919050565b600b82604051610a999190612f4b565b908152602001604051809103902060009054906101000a900460ff1615610af5576040517f08c379a0000000000000000000000000000000000000000000000000000000008152600401610aec90612fae565b60405180910390fd5b600a60405180604001604052808481526020018381525090806001815401808255809150506001900390600052602060002090600202016000909190919091506000820151816000019080519060200190610b519291906120c7565b506020820151816001019080519060200190610b6e9291906120c7565b50505060006001600a80549050610b859190612ffd565b9050610b913382611481565b6001600b84604051610ba39190612f4b565b908152602001604051809103902060006101000a81548160ff021916908315150217905550505050565b6060600a805480602002602001604051908101604052809291908181526020016000905b82821015610d475783829060005260206000209060020201604051806040016040529081600082018054610c2490612a1e565b80601f0160208091040260200160405190810160405280929190818152602001828054610c5090612a1e565b8015610c9d5780601f10610c7257610100808354040283529160200191610c9d565b820191906000526020600020905b815481529060010190602001808311610c8057829003601f168201915b50505050508152602001600182018054610cb690612a1e565b80601f0160208091040260200160405190810160405280929190818152602001828054610ce290612a1e565b8015610d2f5780601f10610d0457610100808354040283529160200191610d2f565b820191906000526020600020905b815481529060010190602001808311610d1257829003601f168201915b50505050508152505081526020019060010190610bf1565b50505050905090565b606060018054610d5f90612a1e565b80601f0160208091040260200160405190810160405280929190818152602001828054610d8b90612a1e565b8015610dd85780601f10610dad57610100808354040283529160200191610dd8565b820191906000526020600020905b815481529060010190602001808311610dbb57829003601f168201915b5050505050905090565b610df4610ded61107b565b838361165b565b5050565b610e09610e0361107b565b8361113c565b610e48576040517f08c379a0000000000000000000000000000000000000000000000000000000008152600401610e3f90612c78565b60405180910390fd5b610e54848484846117c8565b50505050565b6060610e658261100f565b610ea4576040517f08c379a0000000000000000000000000000000000000000000000000000000008152600401610e9b906130a3565b60405180910390fd5b6000610eae611824565b90506000815111610ece5760405180602001604052806000815250610ef9565b80610ed88461183b565b604051602001610ee99291906130c3565b6040516020818303038152906040525b915050919050565b6000600560008473ffffffffffffffffffffffffffffffffffffffff1673ffffffffffffffffffffffffffffffffffffffff16815260200190815260200160002060008373ffffffffffffffffffffffffffffffffffffffff1673ffffffffffffffffffffffffffffffffffffffff16815260200190815260200160002060009054906101000a900460ff16905092915050565b60007f780e9d63000000000000000000000000000000000000000000000000000000007bffffffffffffffffffffffffffffffffffffffffffffffffffffffff1916827bffffffffffffffffffffffffffffffffffffffffffffffffffffffff1916148061100857506110078261199c565b5b9050919050565b60008073ffffffffffffffffffffffffffffffffffffffff166002600084815260200190815260200160002060009054906101000a900473ffffffffffffffffffffffffffffffffffffffff1673ffffffffffffffffffffffffffffffffffffffff1614159050919050565b600033905090565b816004600083815260200190815260200160002060006101000a81548173ffffffffffffffffffffffffffffffffffffffff021916908373ffffffffffffffffffffffffffffffffffffffff160217905550808273ffffffffffffffffffffffffffffffffffffffff166110f68361091f565b73ffffffffffffffffffffffffffffffffffffffff167f8c5be1e5ebec7d5bd14f71427d1e84f3dd0314c0f7b2291e5b200ac8c7c3b92560405160405180910390a45050565b60006111478261100f565b611186576040517f08c379a000000000000000000000000000000000000000000000000000000000815260040161117d90613159565b60405180910390fd5b60006111918361091f565b90508073ffffffffffffffffffffffffffffffffffffffff168473ffffffffffffffffffffffffffffffffffffffff16148061120057508373ffffffffffffffffffffffffffffffffffffffff166111e88461049b565b73ffffffffffffffffffffffffffffffffffffffff16145b8061121157506112108185610f01565b5b91505092915050565b8273ffffffffffffffffffffffffffffffffffffffff1661123a8261091f565b73ffffffffffffffffffffffffffffffffffffffff1614611290576040517f08c379a0000000000000000000000000000000000000000000000000000000008152600401611287906131eb565b60405180910390fd5b600073ffffffffffffffffffffffffffffffffffffffff168273ffffffffffffffffffffffffffffffffffffffff161415611300576040517f08c379a00000000000000000000000000000000000000000000000000000000081526004016112f79061327d565b60405180910390fd5b61130b838383611a7e565b611316600082611083565b6001600360008573ffffffffffffffffffffffffffffffffffffffff1673ffffffffffffffffffffffffffffffffffffffff16815260200190815260200160002060008282546113669190612ffd565b925050819055506001600360008473ffffffffffffffffffffffffffffffffffffffff1673ffffffffffffffffffffffffffffffffffffffff16815260200190815260200160002060008282546113bd919061329d565b92505081905550816002600083815260200190815260200160002060006101000a81548173ffffffffffffffffffffffffffffffffffffffff021916908373ffffffffffffffffffffffffffffffffffffffff160217905550808273ffffffffffffffffffffffffffffffffffffffff168473ffffffffffffffffffffffffffffffffffffffff167fddf252ad1be2c89b69c2b068fc378daa952ba7f163c4a11628f55a4df523b3ef60405160405180910390a461147c838383611a8e565b505050565b600073ffffffffffffffffffffffffffffffffffffffff168273ffffffffffffffffffffffffffffffffffffffff1614156114f1576040517f08c379a00000000000000000000000000000000000000000000000000000000081526004016114e89061333f565b60405180910390fd5b6114fa8161100f565b1561153a576040517f08c379a0000000000000000000000000000000000000000000000000000000008152600401611531906133ab565b60405180910390fd5b61154660008383611a7e565b6001600360008473ffffffffffffffffffffffffffffffffffffffff1673ffffffffffffffffffffffffffffffffffffffff1681526020019081526020016000206000828254611596919061329d565b92505081905550816002600083815260200190815260200160002060006101000a81548173ffffffffffffffffffffffffffffffffffffffff021916908373ffffffffffffffffffffffffffffffffffffffff160217905550808273ffffffffffffffffffffffffffffffffffffffff16600073ffffffffffffffffffffffffffffffffffffffff167fddf252ad1be2c89b69c2b068fc378daa952ba7f163c4a11628f55a4df523b3ef60405160405180910390a461165760008383611a8e565b5050565b8173ffffffffffffffffffffffffffffffffffffffff168373ffffffffffffffffffffffffffffffffffffffff1614156116ca576040517f08c379a00000000000000000000000000000000000000000000000000000000081526004016116c190613417565b60405180910390fd5b80600560008573ffffffffffffffffffffffffffffffffffffffff1673ffffffffffffffffffffffffffffffffffffffff16815260200190815260200160002060008473ffffffffffffffffffffffffffffffffffffffff1673ffffffffffffffffffffffffffffffffffffffff16815260200190815260200160002060006101000a81548160ff0219169083151502179055508173ffffffffffffffffffffffffffffffffffffffff168373ffffffffffffffffffffffffffffffffffffffff167f17307eab39ab6107e8899845ad3d59bd9653f200f220920489ca2b5937696c31836040516117bb919061221e565b60405180910390a3505050565b6117d384848461121a565b6117df84848484611a93565b61181e576040517f08c379a0000000000000000000000000000000000000000000000000000000008152600401611815906134a9565b60405180910390fd5b50505050565b606060405180602001604052806000815250905090565b60606000821415611883576040518060400160405280600181526020017f30000000000000000000000000000000000000000000000000000000000000008152509050611997565b600082905060005b600082146118b557808061189e906134c9565b915050600a826118ae9190613541565b915061188b565b60008167ffffffffffffffff8111156118d1576118d061250a565b5b6040519080825280601f01601f1916602001820160405280156119035781602001600182028036833780820191505090505b5090505b600085146119905760018261191c9190612ffd565b9150600a8561192b9190613572565b6030611937919061329d565b60f81b81838151811061194d5761194c612dbc565b5b60200101907effffffffffffffffffffffffffffffffffffffffffffffffffffffffffffff1916908160001a905350600a856119899190613541565b9450611907565b8093505050505b919050565b60007f80ac58cd000000000000000000000000000000000000000000000000000000007bffffffffffffffffffffffffffffffffffffffffffffffffffffffff1916827bffffffffffffffffffffffffffffffffffffffffffffffffffffffff19161480611a6757507f5b5e139f000000000000000000000000000000000000000000000000000000007bffffffffffffffffffffffffffffffffffffffffffffffffffffffff1916827bffffffffffffffffffffffffffffffffffffffffffffffffffffffff1916145b80611a775750611a7682611c1b565b5b9050919050565b611a89838383611c85565b505050565b505050565b6000611ab48473ffffffffffffffffffffffffffffffffffffffff16611d99565b15611c0e578373ffffffffffffffffffffffffffffffffffffffff1663150b7a02611add61107b565b8786866040518563ffffffff1660e01b8152600401611aff94939291906135f8565b6020604051808303816000875af1925050508015611b3b57506040513d601f19601f82011682018060405250810190611b389190613659565b60015b611bbe573d8060008114611b6b576040519150601f19603f3d011682016040523d82523d6000602084013e611b70565b606091505b50600081511415611bb6576040517f08c379a0000000000000000000000000000000000000000000000000000000008152600401611bad906134a9565b60405180910390fd5b805181602001fd5b63150b7a0260e01b7bffffffffffffffffffffffffffffffffffffffffffffffffffffffff1916817bffffffffffffffffffffffffffffffffffffffffffffffffffffffff191614915050611c13565b600190505b949350505050565b60007f01ffc9a7000000000000000000000000000000000000000000000000000000007bffffffffffffffffffffffffffffffffffffffffffffffffffffffff1916827bffffffffffffffffffffffffffffffffffffffffffffffffffffffff1916149050919050565b611c90838383611dbc565b600073ffffffffffffffffffffffffffffffffffffffff168373ffffffffffffffffffffffffffffffffffffffff161415611cd357611cce81611dc1565b611d12565b8173ffffffffffffffffffffffffffffffffffffffff168373ffffffffffffffffffffffffffffffffffffffff1614611d1157611d108382611e0a565b5b5b600073ffffffffffffffffffffffffffffffffffffffff168273ffffffffffffffffffffffffffffffffffffffff161415611d5557611d5081611f77565b611d94565b8273ffffffffffffffffffffffffffffffffffffffff168273ffffffffffffffffffffffffffffffffffffffff1614611d9357611d928282612048565b5b5b505050565b6000808273ffffffffffffffffffffffffffffffffffffffff163b119050919050565b505050565b6008805490506009600083815260200190815260200160002081905550600881908060018154018082558091505060019003906000526020600020016000909190919091505550565b60006001611e17846109d1565b611e219190612ffd565b9050600060076000848152602001908152602001600020549050818114611f06576000600660008673ffffffffffffffffffffffffffffffffffffffff1673ffffffffffffffffffffffffffffffffffffffff168152602001908152602001600020600084815260200190815260200160002054905080600660008773ffffffffffffffffffffffffffffffffffffffff1673ffffffffffffffffffffffffffffffffffffffff168152602001908152602001600020600084815260200190815260200160002081905550816007600083815260200190815260200160002081905550505b6007600084815260200190815260200160002060009055600660008573ffffffffffffffffffffffffffffffffffffffff1673ffffffffffffffffffffffffffffffffffffffff16815260200190815260200160002060008381526020019081526020016000206000905550505050565b60006001600880549050611f8b9190612ffd565b9050600060096000848152602001908152602001600020549050600060088381548110611fbb57611fba612dbc565b5b906000526020600020015490508060088381548110611fdd57611fdc612dbc565b5b90600052602060002001819055508160096000838152602001908152602001600020819055506009600085815260200190815260200160002060009055600880548061202c5761202b613686565b5b6001900381819060005260206000200160009055905550505050565b6000612053836109d1565b905081600660008573ffffffffffffffffffffffffffffffffffffffff1673ffffffffffffffffffffffffffffffffffffffff168152602001908152602001600020600083815260200190815260200160002081905550806007600084815260200190815260200160002081905550505050565b8280546120d390612a1e565b90600052602060002090601f0160209004810192826120f5576000855561213c565b82601f1061210e57805160ff191683800117855561213c565b8280016001018555821561213c579182015b8281111561213b578251825591602001919060010190612120565b5b509050612149919061214d565b5090565b5b8082111561216657600081600090555060010161214e565b5090565b6000604051905090565b600080fd5b600080fd5b60007fffffffff0000000000000000000000000000000000000000000000000000000082169050919050565b6121b38161217e565b81146121be57600080fd5b50565b6000813590506121d0816121aa565b92915050565b6000602082840312156121ec576121eb612174565b5b60006121fa848285016121c1565b91505092915050565b60008115159050919050565b61221881612203565b82525050565b6000602082019050612233600083018461220f565b92915050565b600081519050919050565b600082825260208201905092915050565b60005b83811015612273578082015181840152602081019050612258565b83811115612282576000848401525b50505050565b6000601f19601f8301169050919050565b60006122a482612239565b6122ae8185612244565b93506122be818560208601612255565b6122c781612288565b840191505092915050565b600060208201905081810360008301526122ec8184612299565b905092915050565b6000819050919050565b612307816122f4565b811461231257600080fd5b50565b600081359050612324816122fe565b92915050565b6000602082840312156123405761233f612174565b5b600061234e84828501612315565b91505092915050565b600073ffffffffffffffffffffffffffffffffffffffff82169050919050565b600061238282612357565b9050919050565b61239281612377565b82525050565b60006020820190506123ad6000830184612389565b92915050565b6123bc81612377565b81146123c757600080fd5b50565b6000813590506123d9816123b3565b92915050565b600080604083850312156123f6576123f5612174565b5b6000612404858286016123ca565b925050602061241585828601612315565b9150509250929050565b612428816122f4565b82525050565b6000602082019050612443600083018461241f565b92915050565b60008060006060848603121561246257612461612174565b5b6000612470868287016123ca565b9350506020612481868287016123ca565b925050604061249286828701612315565b9150509250925092565b600060408201905081810360008301526124b68185612299565b905081810360208301526124ca8184612299565b90509392505050565b6000602082840312156124e9576124e8612174565b5b60006124f7848285016123ca565b91505092915050565b600080fd5b600080fd5b7f4e487b7100000000000000000000000000000000000000000000000000000000600052604160045260246000fd5b61254282612288565b810181811067ffffffffffffffff821117156125615761256061250a565b5b80604052505050565b600061257461216a565b90506125808282612539565b919050565b600067ffffffffffffffff8211156125a05761259f61250a565b5b6125a982612288565b9050602081019050919050565b82818337600083830152505050565b60006125d86125d384612585565b61256a565b9050828152602081018484840111156125f4576125f3612505565b5b6125ff8482856125b6565b509392505050565b600082601f83011261261c5761261b612500565b5b813561262c8482602086016125c5565b91505092915050565b6000806040838503121561264c5761264b612174565b5b600083013567ffffffffffffffff81111561266a57612669612179565b5b61267685828601612607565b925050602083013567ffffffffffffffff81111561269757612696612179565b5b6126a385828601612607565b9150509250929050565b600081519050919050565b600082825260208201905092915050565b6000819050602082019050919050565b600082825260208201905092915050565b60006126f582612239565b6126ff81856126d9565b935061270f818560208601612255565b61271881612288565b840191505092915050565b6000604083016000830151848203600086015261274082826126ea565b9150506020830151848203602086015261275a82826126ea565b9150508091505092915050565b60006127738383612723565b905092915050565b6000602082019050919050565b6000612793826126ad565b61279d81856126b8565b9350836020820285016127af856126c9565b8060005b858110156127eb57848403895281516127cc8582612767565b94506127d78361277b565b925060208a019950506001810190506127b3565b50829750879550505050505092915050565b600060208201905081810360008301526128178184612788565b905092915050565b61282881612203565b811461283357600080fd5b50565b6000813590506128458161281f565b92915050565b6000806040838503121561286257612861612174565b5b6000612870858286016123ca565b925050602061288185828601612836565b9150509250929050565b600067ffffffffffffffff8211156128a6576128a561250a565b5b6128af82612288565b9050602081019050919050565b60006128cf6128ca8461288b565b61256a565b9050828152602081018484840111156128eb576128ea612505565b5b6128f68482856125b6565b509392505050565b600082601f83011261291357612912612500565b5b81356129238482602086016128bc565b91505092915050565b6000806000806080858703121561294657612945612174565b5b6000612954878288016123ca565b9450506020612965878288016123ca565b935050604061297687828801612315565b925050606085013567ffffffffffffffff81111561299757612996612179565b5b6129a3878288016128fe565b91505092959194509250565b600080604083850312156129c6576129c5612174565b5b60006129d4858286016123ca565b92505060206129e5858286016123ca565b9150509250929050565b7f4e487b7100000000000000000000000000000000000000000000000000000000600052602260045260246000fd5b60006002820490506001821680612a3657607f821691505b60208210811415612a4a57612a496129ef565b5b50919050565b7f4552433732313a20617070726f76656420717565727920666f72206e6f6e657860008201527f697374656e7420746f6b656e0000000000000000000000000000000000000000602082015250565b6000612aac602c83612244565b9150612ab782612a50565b604082019050919050565b60006020820190508181036000830152612adb81612a9f565b9050919050565b7f4552433732313a20617070726f76616c20746f2063757272656e74206f776e6560008201527f7200000000000000000000000000000000000000000000000000000000000000602082015250565b6000612b3e602183612244565b9150612b4982612ae2565b604082019050919050565b60006020820190508181036000830152612b6d81612b31565b9050919050565b7f4552433732313a20617070726f76652063616c6c6572206973206e6f74206f7760008201527f6e6572206e6f7220617070726f76656420666f7220616c6c0000000000000000602082015250565b6000612bd0603883612244565b9150612bdb82612b74565b604082019050919050565b60006020820190508181036000830152612bff81612bc3565b9050919050565b7f4552433732313a207472616e736665722063616c6c6572206973206e6f74206f60008201527f776e6572206e6f7220617070726f766564000000000000000000000000000000602082015250565b6000612c62603183612244565b9150612c6d82612c06565b604082019050919050565b60006020820190508181036000830152612c9181612c55565b9050919050565b7f455243373231456e756d657261626c653a206f776e657220696e646578206f7560008201527f74206f6620626f756e6473000000000000000000000000000000000000000000602082015250565b6000612cf4602b83612244565b9150612cff82612c98565b604082019050919050565b60006020820190508181036000830152612d2381612ce7565b9050919050565b7f455243373231456e756d657261626c653a20676c6f62616c20696e646578206f60008201527f7574206f6620626f756e64730000000000000000000000000000000000000000602082015250565b6000612d86602c83612244565b9150612d9182612d2a565b604082019050919050565b60006020820190508181036000830152612db581612d79565b9050919050565b7f4e487b7100000000000000000000000000000000000000000000000000000000600052603260045260246000fd5b7f4552433732313a206f776e657220717565727920666f72206e6f6e657869737460008201527f656e7420746f6b656e0000000000000000000000000000000000000000000000602082015250565b6000612e47602983612244565b9150612e5282612deb565b604082019050919050565b60006020820190508181036000830152612e7681612e3a565b9050919050565b7f4552433732313a2062616c616e636520717565727920666f7220746865207a6560008201527f726f206164647265737300000000000000000000000000000000000000000000602082015250565b6000612ed9602a83612244565b9150612ee482612e7d565b604082019050919050565b60006020820190508181036000830152612f0881612ecc565b9050919050565b600081905092915050565b6000612f2582612239565b612f2f8185612f0f565b9350612f3f818560208601612255565b80840191505092915050565b6000612f578284612f1a565b915081905092915050565b7f54686973206973206e6f74206d696e7461626c652e0000000000000000000000600082015250565b6000612f98601583612244565b9150612fa382612f62565b602082019050919050565b60006020820190508181036000830152612fc781612f8b565b9050919050565b7f4e487b7100000000000000000000000000000000000000000000000000000000600052601160045260246000fd5b6000613008826122f4565b9150613013836122f4565b92508282101561302657613025612fce565b5b828203905092915050565b7f4552433732314d657461646174613a2055524920717565727920666f72206e6f60008201527f6e6578697374656e7420746f6b656e0000000000000000000000000000000000602082015250565b600061308d602f83612244565b915061309882613031565b604082019050919050565b600060208201905081810360008301526130bc81613080565b9050919050565b60006130cf8285612f1a565b91506130db8284612f1a565b91508190509392505050565b7f4552433732313a206f70657261746f7220717565727920666f72206e6f6e657860008201527f697374656e7420746f6b656e0000000000000000000000000000000000000000602082015250565b6000613143602c83612244565b915061314e826130e7565b604082019050919050565b6000602082019050818103600083015261317281613136565b9050919050565b7f4552433732313a207472616e736665722066726f6d20696e636f72726563742060008201527f6f776e6572000000000000000000000000000000000000000000000000000000602082015250565b60006131d5602583612244565b91506131e082613179565b604082019050919050565b60006020820190508181036000830152613204816131c8565b9050919050565b7f4552433732313a207472616e7366657220746f20746865207a65726f2061646460008201527f7265737300000000000000000000000000000000000000000000000000000000602082015250565b6000613267602483612244565b91506132728261320b565b604082019050919050565b600060208201905081810360008301526132968161325a565b9050919050565b60006132a8826122f4565b91506132b3836122f4565b9250827fffffffffffffffffffffffffffffffffffffffffffffffffffffffffffffffff038211156132e8576132e7612fce565b5b828201905092915050565b7f4552433732313a206d696e7420746f20746865207a65726f2061646472657373600082015250565b6000613329602083612244565b9150613334826132f3565b602082019050919050565b600060208201905081810360008301526133588161331c565b9050919050565b7f4552433732313a20746f6b656e20616c7265616479206d696e74656400000000600082015250565b6000613395601c83612244565b91506133a08261335f565b602082019050919050565b600060208201905081810360008301526133c481613388565b9050919050565b7f4552433732313a20617070726f766520746f2063616c6c657200000000000000600082015250565b6000613401601983612244565b915061340c826133cb565b602082019050919050565b60006020820190508181036000830152613430816133f4565b9050919050565b7f4552433732313a207472616e7366657220746f206e6f6e20455243373231526560008201527f63656976657220696d706c656d656e7465720000000000000000000000000000602082015250565b6000613493603283612244565b915061349e82613437565b604082019050919050565b600060208201905081810360008301526134c281613486565b9050919050565b60006134d4826122f4565b91507fffffffffffffffffffffffffffffffffffffffffffffffffffffffffffffffff82141561350757613506612fce565b5b600182019050919050565b7f4e487b7100000000000000000000000000000000000000000000000000000000600052601260045260246000fd5b600061354c826122f4565b9150613557836122f4565b92508261356757613566613512565b5b828204905092915050565b600061357d826122f4565b9150613588836122f4565b92508261359857613597613512565b5b828206905092915050565b600081519050919050565b600082825260208201905092915050565b60006135ca826135a3565b6135d481856135ae565b93506135e4818560208601612255565b6135ed81612288565b840191505092915050565b600060808201905061360d6000830187612389565b61361a6020830186612389565b613627604083018561241f565b818103606083015261363981846135bf565b905095945050505050565b600081519050613653816121aa565b92915050565b60006020828403121561366f5761366e612174565b5b600061367d84828501613644565b91505092915050565b7f4e487b7100000000000000000000000000000000000000000000000000000000600052603160045260246000fdfea2646970667358221220174ea295a360d30b9df293032d98e5daf77f9d3009758a8c8020b5136ba9dbb064736f6c634300080b0033",
  "immutableReferences": {},
  "source": "// SPDX-License-Identifier: MIT\r\npragma solidity ^0.8.0;\r\n\r\nimport \"@openzeppelin/contracts/token/ERC721/ERC721.sol\";\r\nimport \"@openzeppelin/contracts/token/ERC721/extensions/ERC721Enumerable.sol\";\r\n\r\ncontract Zkoopa is ERC721, ERC721Enumerable {\r\n\r\n    struct NFT {\r\n        string name;\r\n        string nftType;\r\n    }\r\n\r\n    NFT[] public zkoops;\r\n    mapping(string => bool) userExist;\r\n\r\n    constructor() ERC721(\"zkoopa\", \"biggy\")  {\r\n\r\n    }\r\n\r\n    function getAllZkoopas() public view returns(NFT[] memory) {\r\n        return zkoops;\r\n    }\r\n\r\n    function mint(string memory name, string memory nftType) public {\r\n        require(!userExist[name], \"This is not mintable.\");\r\n        zkoops.push(NFT(name, nftType));\r\n        uint _id = zkoops.length - 1;\r\n        _mint(msg.sender, _id);\r\n        userExist[name] = true;\r\n    }\r\n\r\n    function supportsInterface(bytes4 interfaceId)\r\n    public\r\n    view\r\n    override(ERC721, ERC721Enumerable)\r\n    returns (bool)\r\n    {\r\n        return super.supportsInterface(interfaceId);\r\n    }\r\n\r\n    function _beforeTokenTransfer(address from, address to, uint256 tokenId)\r\n    internal\r\n    override(ERC721, ERC721Enumerable)\r\n    {\r\n        super._beforeTokenTransfer(from, to, tokenId);\r\n    }\r\n}\r\n",
  "sourcePath": "D:\\SiNiSteR\\my projects\\BLOCKCHAIN\\NFT\\nft-phnx\\contracts\\Zkoopa.sol",
  "compiler": {
    "name": "solc",
    "version": "0.8.11+commit.d7f03943.Emscripten.clang"
  },
  "schemaVersion": "3.4.4",
  "updatedAt": "2022-02-12T17:20:41.760Z",
  "networkType": "ethereum",
  "devdoc": {
    "kind": "dev",
    "methods": {
      "approve(address,uint256)": {
        "details": "See {IERC721-approve}."
      },
      "balanceOf(address)": {
        "details": "See {IERC721-balanceOf}."
      },
      "getApproved(uint256)": {
        "details": "See {IERC721-getApproved}."
      },
      "isApprovedForAll(address,address)": {
        "details": "See {IERC721-isApprovedForAll}."
      },
      "name()": {
        "details": "See {IERC721Metadata-name}."
      },
      "ownerOf(uint256)": {
        "details": "See {IERC721-ownerOf}."
      },
      "safeTransferFrom(address,address,uint256)": {
        "details": "See {IERC721-safeTransferFrom}."
      },
      "safeTransferFrom(address,address,uint256,bytes)": {
        "details": "See {IERC721-safeTransferFrom}."
      },
      "setApprovalForAll(address,bool)": {
        "details": "See {IERC721-setApprovalForAll}."
      },
      "symbol()": {
        "details": "See {IERC721Metadata-symbol}."
      },
      "tokenByIndex(uint256)": {
        "details": "See {IERC721Enumerable-tokenByIndex}."
      },
      "tokenOfOwnerByIndex(address,uint256)": {
        "details": "See {IERC721Enumerable-tokenOfOwnerByIndex}."
      },
      "tokenURI(uint256)": {
        "details": "See {IERC721Metadata-tokenURI}."
      },
      "totalSupply()": {
        "details": "See {IERC721Enumerable-totalSupply}."
      },
      "transferFrom(address,address,uint256)": {
        "details": "See {IERC721-transferFrom}."
      }
    },
    "version": 1
  },
  "userdoc": {
    "kind": "user",
    "methods": {},
    "version": 1
  }
}